:020000040000FA
:10000000902D0020E901000003020000050200001D
:1000100007020000090200000B02000000000000BF
:100020000000000000000000000000000D020000C1
:100030000F02000000000000110200007711000014
:100040001502000015020000150200006F110000EB
:100050001502000000000000000000000000000089
:100060000000000000000000000000001502000079
:100070001502000015020000150200001502000024
:100080001502000015020000150200001502000014
:10009000150200001502000015020000000000001B
:1000A000150200001502000000000000150200000B
:1000B00015020000150200000000000015020000FB
:1000C0000000000015020000000000001502000002
:1000D00015020000150200001502000015020000C4
:1000E00000000000000000000000000015020000F9
:1000F00000000000150200000000000015020000D2
:1001000000000000150200000000000015020000C1
:100110001502000015020000150200001502000083
:100120001502000015020000150200001502000073
:10013000150200001502000000000000150200007A
:10014000150200001502000015020000000000006A
:100150001502000015020000150200001502000043
:100160001502000000000000000000000000000078
:10017000000000000000000000000000000000007F
:100180000000000015020000000000000000000058
:10019000000000000000000000000000000000005F
:1001A0000000000000000000150200001502000021
:1001B00015020000150200001502000015020000E3
:1001C000DFF810D000F0B2F800480047F91800003E
:1001D000AFF30080902D0020704770477047704744
:1001E00000000000000000000B48016821F480318D
:1001F00001600A484FF4803101600948804709488E
:100200000047FEE7FEE7FEE7FEE7FEE7FEE7FEE764
:10021000FEE7FEE7FEE7000004F0014000F00140C9
:1002200099120000C101000040EA01039B0703D0BE
:1002300009E008C9121F08C0042AFAD203E011F825
:10024000013B00F8013B521EF9D27047D2B201E0E7
:1002500000F8012B491EFBD270470022F6E710B5CB
:1002600013460A4604461946FFF7F0FF204610BD24
:1002700030B505462A460B4612F8010B13F8014B20
:1002800008B1A042F8D01CB1002802D06D1CF1E7E3
:10029000284630BD10B5044604E00B7800F8013B59
:1002A00003B1491C521EF8D2204610BD421C10F862
:1002B000011B0029FBD1801A704710B5002200E015
:1002C000521C835C8C5CA34201D1002BF8D1D8B2C4
:1002D000E1B2401A10BD10B5044600E0401C03789E
:1002E000002BFBD100E0401C521E04D311F8013B4F
:1002F0000370002BF7D100210170204610BD30B5EE
:100300000B46014600202022012409E021FA02F5D3
:100310009D4205D303FA02F5491B04FA02F528446D
:10032000151EA2F10102F1DC30BD0000064C074DA4
:1003300006E0E06840F0010394E8070098471034B5
:10034000AC42F6D3FFF740FFF02700001028000072
:100350007047704770470B4810B5446A446214F008
:100360000C0F02D02046FFF7F3FF14F4046F02D005
:100370002046FFF7EEFF14F4E02F02D02046FFF7EF
:10038000E9FF10BD00F001402DE9F04F8BB0374878
:1003900000F078F936A000F0A3F839A00025CDE9E7
:1003A00000504FF2BE7301221E210A2000F01CF9FA
:1003B0003A4F00244FF00C0B43F2EE66A8460DF1C5
:1003C00028094FF03E0AC4EBC4010BEB8100C5B213
:1003D00041F2A2001623009037211A46284600F069
:1003E00025F904F13101CDF828808DF82810395D08
:1003F000404679B1A81C12233921C0B21A46009692
:1004000000F0ACF80835CDE9006900235146E8B2A8
:10041000012207E0CDE9000908355146E8B248F667
:100420009443012200F0E0F8641C052CCBDB002390
:100430001846395C01B95B1C401C0528F9DB002B10
:1004400008DD17A2202102A800F0BAFF02A94FF68A
:10045000205301E018A13346CDE9008101225A2141
:100460000F2000F0C1F80BB0BDE8F08FD4040000FD
:100470005343414E20425443205041525400000007
:100480005363616E20352051522070617274732065
:10049000696E206F726465723A00000006000020E9
:1004A00057616974696E6720666F722025642070D9
:1004B000617274732E2E2E00416C6C207061727408
:1004C00073206D65726765642100000001A000F073
:1004D000D9B80000434D445F434C4541520A0000E7
:1004E0007CB5064641F2A20400211023A022084652
:1004F000009400F033F840F2FF751023A022194653
:100500000020009500F04EF83046FFF7CFFEA0EB3C
:100510008000A02101EB400000EBD070411000D51D
:100520000021CDE90046C8B22B460122042100F08B
:100530005BF87CBD00B5C1B0034605A24FF48071E5
:10054000684600F03DFF684600F09CF841B000BDF1
:10055000434D445F51523A25730A000010B5A4B0D0
:100560001C46269BCDE90012CDE90243034605A2B5
:10057000802104A800F024FF04A800F083F824B030
:1005800010BD0000434D445F46494C4C5245435416
:100590003A25642C25642C25642C25642C25640ABA
:1005A0000000000010B5A4B01C46269BCDE9001247
:1005B000CDE90243034605A2802104A800F000FF14
:1005C00004A800F05FF824B010BD0000434D445F64
:1005D0004C494E453A25642C25642C25642C256411
:1005E0002C25640A0000000030B5A5B0DDE92845DF
:1005F0008DE83E00034605A2802105A800F0E0FE3C
:1006000005A800F03FF825B030BD0000434D445F21
:100610005052494E543A25642C25642C25642C25CF
:10062000642C25642C25730A0000000010B5A4B0CA
:100630001C46269BCDE90012CDE90243034605A2E4
:10064000802104A800F0BCFE04A800F01BF824B030
:1006500010BD0000434D445F524543543A25642C7D
:1006600025642C25642C25642C25640A00000000D8
:1006700001A000F007B80000434D445F5343414ED2
:100680000A00000010B50446FFF710FE82B24FF4D6
:100690007A732146034800F02BFCBDE8104014207B
:1006A00000F062B8340000202DE9F04705464CF216
:1006B0005039174688464FF4C004484600F026F8E3
:1006C000114E06203060306C40F001003064484626
:1006D00000F01CF8002815D117B1F168090E396037
:1006E000B8F1000F03D0F1680A0C88F80020002D43
:1006F00008D000212960696014F8012B6A54491C54
:100700000829F9D3BDE8F087001060002DE9F04119
:10071000134F04460020F86100F04EF90546114ED3
:100720000AE0601C08D024B100F046F9401BA0424A
:1007300002D90120BDE8F081B06CC007F1D1306D65
:10074000C00702D00120306508E0306D800705D574
:10075000F06880B2F86102203065EAE70020E9E73E
:10076000700D00200010600070B5054600F024F9FF
:10077000044600E000BF00F01FF9001BA842F9D3B7
:1007800070BD00002DE9F041054601202978134C89
:1007900009074CF2503714D538466E6AFFF7B6FF9A
:1007A00078B9216821F0FF0109312160216821F425
:1007B000407101F5807121606660216C41F001019A
:1007C00021642978C90607D595F828503846FFF7DF
:1007D0009DFF002800D1A565BDE8F08100106000F4
:1007E0002DE9F04104460D202060002204F10C00A8
:1007F0001146FFF759FF002204F118011046FFF7D8
:1008000053FF002104F11C020846FFF74DFF4CF294
:10081000503704F120063846FFF778FF1D4D98B990
:10082000286820F0FF00C01D2860286820F4407070
:100830002860286C40F0010028643846FFF766FF06
:1008400010B9E868000C30703846FFF75FFFA0B9B8
:10085000286820F0FF0009302860286820F44070E4
:100860002860286C40F0010028643846FFF74EFFEE
:1008700018B94FF4C0000068606238462834FFF7AA
:1008800045FF002803D1A86D00F001002070BDE8ED
:10089000F0810000001060002DE9F0410F46044691
:1008A000002628E00125B540284223D03879A168E8
:1008B00000F00100B040A943A160A1680143A1601C
:1008C000A068284216D1B86802281BD0E169B04060
:1008D000A943E161E1690143E161A0692843A061A5
:1008E00031462046FA6800F0EDFD294620467A6838
:1008F00000F0ABFD761C386830FA06F1D2D100204A
:10090000BDE8F081A069A843E9E74068084000D04D
:100910000120704770B591FAA1F11446B1FA81F542
:1009200000F014FEC0B228440C4900EB400001EB7B
:10093000800001218268A1400A4201D1012070BDDE
:10094000017903688C401F228A401968914319601D
:10095000006821430160002070BD0000CC2400002D
:1009600012B10161002070474161FBE710B50446F8
:100970000078C00701D0616803E00D480068C0F34B
:1009800042110C4829B1022903D0042906D04FF6A0
:10099000FF702178890704D5A16807E000F05CF9B1
:1009A000F7E703490839096801F00701C84010BD9D
:1009B0000CF80140001BB700014840687047000078
:1009C00024000020014880687047000024000020B7
:1009D00002484168027811444160704724000020B9
:1009E00010B50F2000F020F800F004F8FFF7F4FB3A
:1009F000002010BD0A4800B5006A8BB0C10109484B
:100A000002D54FF4005100E00021816110200090D8
:100A100001208DF828006846FFF7B4FE0BB000BD3A
:100A200000F00140700D00202DE9F041044600F077
:100A3000E1FB1C4D4FF47A712878B1FBF0F01A49B4
:100A40000968B1FBF0F0401EB0F1807F28D24FF072
:100A5000E02778617E170F21304600F0D8FC002097
:100A6000B86107203861102C1AD210480068C0F312
:100A70000222C2F10700042800D90420111D072911
:100A800001D2002200E0D21E01218140491E2140F6
:100A90009140304600F0BBFC0020AC60BDE8F08126
:100AA0000120FBE724000020300000200CED00E0D6
:100AB0002DE9F0478CB004462C224E496846FFF7DA
:100AC000B3FB4D4F0026386A40F0805038622078E2
:100AD0004FF0080980071BD02046FFF747FF474922
:100AE000B0FBF1F56846FFF77BFE0998A8420ED2ED
:100AF0006846CDF800900995FFF744FE002868D1BC
:100B00006846FFF76DFE0998A84262D100E0012611
:100B10002078C00716D0606820B1022805D00428CC
:100B200008D00BE03649096805E03649D1F80C11C8
:100B3000C90601E0396B890700294ADA396B60F38D
:100B4000471139632E4B1B1F18682F490843216832
:100B50008A0703D520F00702A06810434A0704D58E
:100B6000E26820F0380040EAC200090704D5216994
:100B700020F4E07040EA81109846186000F086FA90
:100B80002078C00717D0FFF717FFDFF874A00746DB
:100B90000AF1040A08E0FFF70FFFC01B642803D91D
:100BA00003200CB0BDE8F087DAF800006168C0F3FC
:100BB00042108842EFD176B16846CDF80090099591
:100BC000FFF7E0FD28B96846FFF70AFE0998A8423A
:100BD00001D00120E5E700F061F8D8F8001001F03D
:100BE0000701C84009490860FFF7ECFEFFF71CFF4A
:100BF0000020D6E77824000000F0014040420F00BA
:100C000008F8014000B001400000FA5A300000200E
:100C100000B500F015F803490968C1F3C201C840E6
:100C200000BD000004F8014000B500F009F80349D8
:100C30000968C1F38211C84000BD000004F80140FA
:100C400000B500F02BF80349096801F00701C8401E
:100C500000BD000004F801400E494FF0FF300A6863
:100C60000A680D4BC2F3066209685A43C1F30121B9
:100C700031B1012906D0022906D0032907D105E0A8
:100C8000202004E0102002E0082000E00420B2FB55
:100C9000F0F070470CF80140001BB7000749002036
:100CA0000968074AC1F3421129B1022903D0042976
:100CB00002D1FFF7D1BF1046704700000CF8014089
:100CC000001BB7002DE9F04704460078704E40073E
:100CD00021D56068371F38B1386840F001003860AE
:100CE000FFF76AFE054613E03068C00702D030689F
:100CF000C00679D5306810F0E00F75D0386820F064
:100D00000100386007E0FFF757FE401B64286CD8ED
:100D100038688007F7D52078DFF878815E4F800744
:100D200040D5E06818B30122110345464046FFF75D
:100D3000F1FD012251032846FFF7ECFDD7F8080129
:100D400020F04000C7F80801D7F8DC0320F030009D
:100D50002030C7F8DC03D7F8080140F01000C7F8CE
:100D60000801FFF729FE05464FF4C87916E0306800
:100D7000C00702D03068C0067AD43068C0F3421091
:100D8000022875D0D7F8080120F01000C7F8080134
:100D900008E0FFF711FE401B484571D8D7F80C0159
:100DA000C006F6D52078C00736D0A068F0B1012281
:100DB000910245464046FFF7ADFD0122D10228468B
:100DC000FFF7A8FDD7F8100120F00800C7F81001C0
:100DD000D7F8100140F00400C7F81001FFF7ECFD50
:100DE00005464FF4487813E042E049E0D7F8100197
:100DF00040F00800C7F81001D7F8100120F00400F7
:100E0000C7F8100108E0FFF7D7FD401B404537D871
:100E1000D7F81001C006F6D5204D2069E0B1217D3C
:100E2000286B61F304102863217F286B61F309208C
:100E30002863217E286B61F31E602863286B40F0D5
:100E400001002863286A20F08050286200F01EF913
:100E5000FFF7B2FD044615E03068C0F342100428E5
:100E600006D0286B20F00100286300F00FF90CE099
:100E70000120BDE8F087FFF79FFD001B642801D922
:100E80000320F6E7286B8007F5D50020F1E7000086
:100E90000CF8014000A0034000B0014000F0014008
:100EA00010B504461C2060762046FFF796F9002016
:100EB000E0616076A076A063207610BD10B5044690
:100EC000407E18B10220E061012010BD2046FFF7EE
:100ED00085F91C206076204600F0C2FC0028F3D182
:100EE0000021E16101206076A0760846A16310BD73
:100EF0002DE9F05F0446407E1E4615468B460027CE
:100F0000012806D0607E042845D001273846BDE878
:100F1000F09F207E012816D04FF0010984F8189028
:100F2000042060764FF0000AC4F81CA0FFF744FDCF
:100F3000C4F820B0A5848046E58484F828A02568FC
:100F400084F818A01CE00220E1E7A868C00608D4D5
:100F5000206A00782860206A401C2062E08C401ED5
:100F6000E08494F8280001280FD0701C08D0FFF707
:100F700023FDA0EB0800B04202D9C4F81C9004E0A5
:100F8000E08C0028E1D100E000BF68694006FBD595
:100F900084F81990BAE70227B8E7000070B588B066
:100FA0000024114806940794009401940294039439
:100FB000416E41F4802141660F200125CDE90405F1
:100FC0000A4E04A93046FFF767FC01220F21304684
:100FD000FFF7C6FCF0208DE8310069463046FFF788
:100FE0005BFC08B070BD000000F0014000800340D1
:100FF0002DE9F843224E0025DFF88880A946A6F1A6
:101000000807002237F815104046FFF7A9FC4846AC
:10101000CDF80090401C00906428FBDB0024404683
:1010200036F81410FFF771FC40B91420FFF79CFB51
:1010300036F814104046FFF768FC70B1641C042CAD
:10104000EDDB37F8151001224046FFF789FC6D1CD7
:10105000042DD6DB0020BDE8F88336F81410404696
:10106000FFF753FC0028F8D037F81510012240464E
:10107000FFF776FC044800EB8500005DEBE700001D
:101080001400002000800340392400002DE9F041C5
:1010900088B00020421E6C46810001F1E021D1F8A9
:1010A000003144F82030C1F88021401C0828F3D3D7
:1010B0004FF0E028D8F81060D8F8101021F00201A5
:1010C000C8F81010154FBD6A0020B8624020786241
:1010D000B86A40F04000B862032000F08BF9386A2B
:1010E00040F000403862386A40F04000386230BF5B
:1010F000386A20F0004038620020810001F1E021D0
:1011000054F82020C1F80021401C0828F5D3C8F865
:101110001060BD6208B0BDE8F081000000F0014041
:101120002DE9F843002406462C2741F2A20804EBDF
:10113000840007EB8000C5B20C231A4630212846F4
:10114000CDF80080FFF772FAB44202DA43F2EE60A3
:1011500000E00020AD1C00900823E8B21A463221BE
:10116000FFF7FCF9641C042CE1DBBDE8F88310B543
:10117000FFF7F1F810BD10B5FFF72AFC10BD000015
:1011800030B599B020216846FFF767F8142113A8FD
:10119000FFF763F82C22164908A8FFF745F808A8BE
:1011A000FFF7F0FA08B172B6FEE704250120CDE999
:1011B00000500024CDE9040440200690032007904D
:1011C0006846FFF77FFD08B172B6FEE70F20CDE954
:1011D00013050220CDE9150413A81794FFF768FC46
:1011E00008B172B6FEE700F005F819B030BD000096
:1011F0004C24000070B5254E3268C2F30664326894
:10120000234D244BC2F342121AB1022A01D0042A00
:1012100001D01D6019E03268D2061D4A54431C609B
:101220003268C2F3012232B1012A06D0022A06D066
:10123000032A07D105E0202104E0102102E0082163
:1012400000E00421B4FBF1F1196010490839096884
:1012500001F00701082914D2DFE801F00406080AAA
:101260000C0E101201200CE002200AE0042008E01D
:10127000082006E0102004E0202002E0402000E0EA
:1012800080201968B1FBF0F0186070BD0CF80140C7
:10129000001BB700300000200248016841F47001D3
:1012A0000160704788ED00E070B5134C606E40F44B
:1012B00000306066114D012291022846FFF72AFB9B
:1012C0000122D1022846FFF725FB606E40F0100096
:1012D00060660C480A4901604FF4E1314160032126
:1012E00081600021C16001614161FFF7E7FD0028D5
:1012F00001D072B6FEE770BD00F0014000700340FF
:10130000004002403400002008B5074802E00168B0
:101310008DF800104169C907F9D10449002088807F
:101320000349087008BD0000004002400000002092
:10133000700000202DE9F0410E460746FFF73CFB08
:10134000084C05466069C00704D020683870012049
:10135000BDE8F081FFF730FB401BB042F2D900201E
:10136000F6E7000000400240F0B585B000268DF899
:10137000106034466D464FF4FA670AE09DF810009D
:101380000A280ED00D280CD00F2C02D22855641C30
:10139000E4B2394604A8FFF7CDFF0028EED105B02E
:1013A000F0BD002CF5D02E5503A16846FEF760FF76
:1013B0000028F4D10024ECE75245414459000000D4
:1013C0000FB47CB50C0009AD01D0611E00E0002116
:1013D000CDE90001064B6A462946089800F0CEF890
:1013E000002C02D0009A002111707CBC5DF814FB27
:1013F00035170000002809DB00F01F020121914091
:101400004009800000F1E020C0F800117047090792
:10141000090E002804DB00F1E02080F8001470477A
:1014200000F00F0000F1E02080F8141D704702E08A
:1014300008C8121F08C1002AFAD17047002001E035
:1014400001C1121F002AFBD170472DE9F043066A43
:1014500091464FF0000C056B436B826BC46BA9F196
:101460000207092F15D2DFE807F005140714091445
:101470000D1411000B4302E00B4304E08B438A433D
:101480008C430AE08B438A430C4306E08B430A43B8
:1014900003E08E438D434FF0010CC76ABCF1000F8F
:1014A00006D00F4305630662C7620020BDE8F083E3
:1014B00043638263B9F10A0F00D0C4630E430D4346
:1014C0008F43EFE73CB501241B4D8C401B4BA842DA
:1014D00008D1B4F5801F02D0D3E9020310E0D3E9AC
:1014E00000030DE0164DA84202D1D3E9040307E042
:1014F000144DA84202D1D3E9060301E0D3E9080361
:10150000CDE90003234214D0DDE90030042804D0E3
:101510004900032088408A4002E04FF440701202E4
:10152000094901EB8301D1F8003983431343C1F822
:10153000003900203CBD000000700340A4240000DE
:10154000008003400090034000F0014008498842B9
:1015500001D1002070470749884201D1152070470A
:101560000549884201D12520704735207047000089
:101570000070034000800340009003402DE9FF4FBE
:101580008BB09A460F460546002606E025280BD06C
:1015900052460D9990476D1C761C28780028F5D18D
:1015A0000FB03046BDE8F08F0024A046012260490C
:1015B00000E0044315F8013F203B02FA03F0084223
:1015C000F7D128782E2817D115F8010F44F004041C
:1015D0002A280ED06FF02F022878A0F130010929B7
:1015E0000AD808EB880102EB410100EB01086D1CF1
:1015F000F2E757F8048B6D1C287869283ED006DC8A
:101600000028CDD063280BD0642804D136E073289D
:1016100010D075284BD052460D999047761C85E026
:1016200017F8040B8DF8000000208DF80100E94642
:10163000012003E057F8049B4FF0FF3061074FF0A3
:10164000000401D40AE0641C44450DDA8442FADB4C
:1016500019F804100029F6D106E0641C8442FCDB72
:1016600019F804100029F8D1264404E019F8010BF8
:1016700052460D999047641EF8D257E001CF4FF0C3
:101680000A0B002802DA40422D2102E0210504D590
:101690002B218DF82410012103E0E10705D0202142
:1016A000F7E70DF1200908910CE00021F9E701CFDF
:1016B0004FF00A0BF9E75946FEF721FE01F130021F
:1016C00009F8012D0028F6D1ADEB090000F1200B3F
:1016D000600701D44FF00108D84502DDA8EB0B00EC
:1016E00000E000208046002406E009A85246005D84
:1016F0000D999047641C761C08988442F5DB04E041
:10170000302052460D999047761CB8F10001A8F19F
:101710000108F5DC05E019F8010B52460D999047D8
:10172000761CBBF10001ABF1010BF4DC6D1C34E75E
:10173000092801004A68002A06D00A68531C0B6079
:1017400010704868401E4860704700002DE9F04165
:10175000046807463D4B00200D46E21A01469C42B4
:1017600017D009DC3A4AA2180DD0B2F5805F0CD030
:10177000B2F5005F10D10AE0B2F5803F0CD0B2F5AF
:10178000883F09D107E0012106E0022104E003219E
:1017900002E0042100E005212E4A12680A31CA4005
:1017A00012F0010102D0FFF757FA02E009B9FFF782
:1017B00047FAB5EB101F35D800EB80022901520023
:1017C000B2FBF1F10A22B1FBF2F6B1FBF2F302FB3C
:1017D0001311052900D3761C3101B0FBF1F1A942A8
:1017E00002D9A1EB050102E009D2A5EB01014FF4FA
:1017F0007A7201FB02F1B1FBF5F11F2912D2B0FBA5
:10180000F6F515493868884202D01449884202D159
:10181000FFF70AFA01E0FFF7FBF9C0EBC000B5EBF8
:10182000C00F02D30120BDE8F081E06840F08000E5
:10183000E0600120A060C6F307206060F0B2206085
:10184000E06820F08000E0600020ECE7004001400C
:1018500000F0FEBF00F8014000400240005002408E
:1018600010B5D0E9022342EA83031F4A016891427E
:1018700008D01E4A914205D01D4A914202D01D4A0D
:1018800091421DD142699AB1012A04D0022A06D0A0
:10189000032A08D014E04A6842F010020FE04A68B8
:1018A00042F020020BE04A6842F020024A60F2E770
:1018B0004A6822F020024A604A6822F010024A6018
:1018C000046924B143F00802012C03D004E023F0A2
:1018D000080201E042F01002CA604168FFF736FFDB
:1018E000002800D0012010BD00400240001001403F
:1018F0000020014000300140D2B000244D944E94AD
:101900004F945094FFF76CF84FF480504FF0010A59
:101910005094CDE94D0A4DA9FD48FEF7BDFF00B139
:10192000FEE7FFF72DFCFFF739FBFFF7BDFC41F2A7
:101930009410FEF719FFF748FFF7B2FAFFF7B4FC6F
:10194000FFF7E2FCF448FEF79DFEF4A0FEF7C8FDA9
:10195000F5A1CDE90041A1464FF2BE7301221E213F
:101960001420FEF741FE0020FFF7DAFB00264FF0BF
:10197000020BFFF73DFBF24F04463878072830D2C0
:10198000DFE800F00489F8F7F6F5F4009EB1E248CC
:10199000FEF778FEE1A0FEF7A3FDE3A1CDE90091FB
:1019A0004FF2BE7301221E211420FEF71DFE0020FF
:1019B000FFF7B6FB0026002C13D0A4F13000092855
:1019C0000BD878780728DAD2DD491C310C54401C3A
:1019D000C0B2787001F8009039E0232C02D0412C7D
:1019E0000BD0EDE378780028FBD0401ED44AC0B27B
:1019F0001C32787002F8009029E0D148D1491C309F
:101A0000FEF75BFC30B34FF6082414238C225F21D1
:101A10000A200094FEF7A2FDCBA0CDE900400023F0
:101A2000012265212D20FEF7DFFD4FF49660FEF7C1
:101A30009BFE4C4614238C225F210A20CDF8009097
:101A4000FEF78CFDBE487C701C3004700020FFF750
:101A500067FBB5E3B048FEF715FE43F2EE643223B0
:101A60008C2223210A200094FEF778FDB9A0CDE94D
:101A700000400023022230213220FEF7B5FDB6A03F
:101A8000CDE900400023012246212320FEF7ACFDD2
:101A900040F2DC504FE3002E5FD09F48FEF7F2FD8E
:101AA0009EA0FEF71DFD41F2A206122390221621F0
:101AB00008200096FEF7BAFDABA0CDE900904FF2EA
:101AC000BE784D46434601221B210E20FEF78CFDB9
:101AD000122390222C2108200096FEF7A7FDA8A033
:101AE000CDE900504346012231210E20FEF77CFD56
:101AF00012239022422108200096FEF797FDA6A00F
:101B0000CDE900504346012247210E20FEF76CFD2F
:101B10004FF608281223902258210820CDF8008083
:101B2000FEF784FDA1A0CDE90050434601225D21CE
:101B30000E20FEF759FD6E23A022194600200096C4
:101B4000FEF730FD9DA0CDE9005048F694430122F8
:101B500070210A20FEF748FD0026412C0BD0422CB4
:101B600036D0432C7BD0442C7DD029E330E3E8E20F
:101B70003EE2ADE17FE04D4687F802906648FEF711
:101B800081FD93A0FEF7ACFC95A0CDE900504FF28B
:101B9000BE7301222D210F20FEF726FD41F2A20087
:101BA00000900823782241211420FEF73FFD0024F5
:101BB00040F2FF76E2B20423432116200096FEF79E
:101BC000CDFC6420FEF7D0FD1D34742CF2DD3CE02A
:101BD0005B490020874A87F802A0891D4D460D54B5
:101BE00002EB0023401C1D700528F8DBFEF7CCFB40
:101BF0004FF49660FEF7B8FD4748FEF743FD7EA020
:101C0000FEF76EFC76A0CDE900504FF2BE730122C4
:101C10002D210F20FEF7E8FC41F2A20000900823DE
:101C2000782241211420FEF701FD002440F2FF76C6
:101C3000E2B20423432116200096FEF78FFC6420B5
:101C4000FEF792FD1D34742CF2DD6F48FEF71AFD8D
:101C5000BD8087F800B001268BE600E003E0062097
:101C60006DE20126B0E2364987F801901C31484602
:101C700081F8009063E2274D8DF800903C351AE121
:101C80009DF800100A290AD00D2908D0B88840F222
:101C9000FF32904237D22954401CB8800BE1B888FB
:101CA00078B305F800901B48C84658A13C30FEF7B1
:101CB000DFFA38B3C51DFFF757FBB87840B12A7873
:101CC00000214FF0FF36422A0DD0702A1CD0B4E01C
:101CD00040F2FF3229464F48FEF7DCFA4D49042016
:101CE00081F8FF93D7E0687824280ED1A8793028AE
:101CF0000CD1E87930280AD3342808D8A0F130066E
:101D000090E0D8E0D2E0D4E08FE096E08CE083E091
:101D10000080034034000020D40400004352595096
:101D2000544F20434F4C4400456E74657220504917
:101D30004E20746F20556E6C6F636B3A000000008C
:101D4000000000203424000057524F4E47205049D5
:101D50004E2100004F4B210057616C6C657420557B
:101D60006E6C6F636B6564005B415D205363616EF5
:101D70002045544820547820283120515229000011
:101D80005B425D205363616E2042544320547820AF
:101D900028352051522900005B435D2053686F773E
:101DA000205369676E656420545800005B445D20D1
:101DB0004C6F636B2057616C6C6574005365637581
:101DC00072656420627920534E33344637383000D0
:101DD00043414D455241205343414E204554480014
:101DE0004F70656E696E672043616D6572612E2E5E
:101DF0002E0000007008002043414D455241205301
:101E000043414E20425443007806000054585F522C
:101E100041573A0070040020312827D3352825D8AF
:101E2000A0F1310605F1080120E06878312804D3DB
:101E3000352802D8AB783A2B09D0A2F1310004281A
:101E400014D86A782F2A06D03A2A0DD00EE0A0F1D5
:101E50003106E91C0AE0AA78352A07D1EA783A2A3D
:101E600004D10646291D01E00646A91C701C1AD0A3
:101E7000C9B1FC4DA85D01280FD0FB48FF2200EB43
:101E800006284046FEF706FA88F8FF9005F806A0F7
:101E900087F803900320387003E087F803A003213C
:101EA000397001260EE087F803B0F8E7A7F8048040
:101EB00001E0A7F8049005216846FFF73BFA0028E7
:101EC0007FF4DEAE422C0DD1E848FEF7DBFBA7E243
:101ED000002E78D0FFF748FAF87820B1012835D0E5
:101EE000022857D06CE1FEF74FFA4FF47A70FEF7F4
:101EF0003BFC0123DB4900200A5CF2B1401C0528B1
:101F0000FADBD3B1DA4EDFF860834D4686F80090F5
:101F10000024D748FEF7CAF9A0F2FF30424208EB8E
:101F20000421D348FEF7D7F9641C052CF1DB86F8B1
:101F3000FF53FFF7E9F9042001E1FFF7E5F9CD4888
:101F4000FEF7A0FB87F800B0002612E5C748FEF7B1
:101F500099FBC9A0FEF7C4FA4FF6205428238C221F
:101F60002D210A200094FEF7F9FAC7A0CDE9004020
:101F70000023012236211220FEF736FBC7A0CDE94F
:101F800000400023012246210F20FEF72DFB4FF4D5
:101F9000966024E0B548FEF775FBC5A0FEF7A0FAF1
:101FA0004FF6082428238C222D210A200094FEF7C6
:101FB000D5FAC2A0CDE90040002301223621192024
:101FC000FEF712FB00E0FFE0C0A0CDE900400023D7
:101FD000012246210F20FEF707FB40F2DC50FEF7FE
:101FE000C3FBFEF7D1F94FF4FA70FEF7BDFBA4E78F
:101FF000002E77D09D48FEF745FB4FF62055002177
:102000001023A02208460095FEF7A8FAB5A0CDE956
:1020100000500023012204211E20FEF7E5FA41F2C0
:10202000A20000904023942216210620FEF7FEFA1B
:10203000B8784D460028B0A0CDE9009048F694430A
:102040004FF001024FF01C014FF00C004FD0FEF793
:10205000CBFAABA0CDE9005043F2EE6301221C2184
:102060003C20FEF7C1FAA9A0CDE900504FF2BE73A3
:1020700001222D210C20FEF7B7FA7D4BA8A22021CA
:1020800002A8FFF79DF902A9CDE9009148F6944313
:1020900001223E210C20FEF7A7FA43F2EE6514233D
:1020A00046225C2106200095FEF758FAA0A0CDE953
:1020B00000500023012262210A20FEF795FA4FF614
:1020C0000825142346225C2154200095FEF746FA89
:1020D0009AA0CDE900500023012262215820FEF78A
:1020E00083FA0026422C10D0412C27D068E0FEF75E
:1020F0007BFA95A0CDE9005043F2EE6301221C214A
:102100003C20FEF771FA93A0AEE75848FEF7BAFA02
:102110004FF608241E238C222D210A200094FEF75E
:102120001DFA91A0CDE9004000230122382128208A
:10213000FEF75AFAA011FEF717FB71E1052038707F
:102140008FE586B34948FEF79DFA8AA0FEF7C8F9E5
:102150008BA1CDE900914FF2BE73012223211920FA
:10216000FEF742FA41F2A20000900E2378223A21B3
:102170001420FEF75BFA002543F2EE686426742013
:10218000684390FBF6F0C2B20A233C211620CDF83A
:102190000080FEF7E3F9C820FEF7E6FA1435642D57
:1021A000EDDD334B00E007E07BA24FF4967102A80F
:1021B000FFF706F902A81CE0422C52D0412C50D067
:1021C000387802283FF448AD1420FEF7CDFA43E5F5
:1021D000002EF1D02548FEF755FA2548FEF766F89F
:1021E00058B1234B6CA24FF496716846FFF7E8F89C
:1021F0006846FEF79FF90026DEE772A0FEF770F949
:102200004FF6082637238C221E210A200096FEF75F
:102210000DFA70A0CDE900904D46334601222621EB
:102220002820FEF7E1F96FA0CDE900504FF2BE760D
:102230003346012236211920FEF7D6F96EA0CDE9EA
:1022400000503346012246211420FEF7CDF941F219
:10225000A205122346225E212D200095FEF77EF96D
:10226000D4E0DDE00600002070080020D404000067
:1022700070040020780600005343414E205741521D
:102280004E494E4700000000414C52454144592000
:102290005343414E4E454421000000005363616E9C
:1022A000206E6578742051522070617274000000B5
:1022B0005343414E204552524F520000494E564121
:1022C0004C494420464F524D415421004E6F7420DA
:1022D000612076616C6964204242517220706172A3
:1022E00074000000564552494659205452414E53FD
:1022F000414354494F4E0000416D6F756E743A0072
:10230000302E30343520425443000000546F3A20C0
:1023100062633171397837772E2E2E37747A7000D8
:1023200054783A20252E3138732E2E2E00000000CE
:102330005B415D20417070726F7665005B425D208D
:1023400043616E63656C0000312E32352045544880
:1023500000000000546F3A20307837314338333969
:102360002E2E2E423845320054582052454A4543BD
:10237000544544005349474E494E472054580000A5
:1023800047656E65726174696E67205369676E6137
:1023900074757265000000005349474E45443A2564
:1023A000737C5349473A307833396165663032631C
:1023B00038343931383233616266646430333439E9
:1023C000656631005452414E53414354494F4E20AB
:1023D000515200004E4F205349474E454420545817
:1023E000210000005363616E2026207369676E2010
:1023F00066697273740000006265666F72652073AF
:10240000686F77696E672051522E000006A0CDE9F3
:1024100000503346012263213A20FEF7E5F8EAE650
:1024200087F800A01DE400005B425D204261636B01
:10243000000000003132333400313233413435365C
:1024400042373839432A3023440000000800000096
:10245000000000000000000000000000000000007C
:10246000000000000000000000000000000000006C
:10247000C000000000000000080000000000000094
:10248000000000000000000000000000000000004C
:10249000000000000000000000000000000000003C
:1024A000000000000400000007FC10000000000015
:1024B00007FC100001000000FFFF00000200000008
:1024C000FFFF000003000000FF3F000000B20140DA
:1024D00000000000CF7F110000B2014005000000A5
:1024E0007FFF150000B201400A0000001FFF150029
:1024F00000000000000000000000000000000000DC
:1025000000000000000000000000000000000000CB
:1025100000000000000000000000000000000000BB
:1025200000000000000000000000000000000000AB
:10253000000000000000000000000000000000009B
:102540000000000004B2014014000000DFFF03009F
:1025500004B2014019000000CFBF040008B20140DE
:10256000000000008BFD000008B2014005000000E3
:10257000C374000008B201400A000000AF740400F8
:1025800008B201400F0000008B7401000000000041
:10259000000000000000000000000000000000003B
:1025A000000000000000000000000000000000002B
:1025B0000000000000000000000000000CB201401C
:1025C0000A0000002150000010B20140000000008D
:1025D000FFB7050010B2014005000000BF770700FB
:1025E00010B201400A000000FFBF070010B2014016
:1025F0000F000000073D040010B20140140000006D
:102600008FFF050010B2014019000000BF7F0100DC
:1026100014B20140000000001F73150014B2014005
:10262000050000005F73030014B201400A000000BF
:10263000FF77050014B201400F000000FF120500F3
:1026400014B2014014000000FF72070014B20140F0
:10265000190000001F78050018B2014000000000BA
:10266000FFFF100018B2014005000000FFEF10004E
:1026700018B201400A0000005F7F010018B201405B
:102680000F000000DD7F010020B2014000000000CB
:10269000EFFA050020B2014005000000FFF9070035
:1026A00020B201400A000000C3F9010020B201403D
:1026B0000F00000083B9040020B2014014000000A4
:1026C000FFF3010020B2014019000000CF331400D5
:1026D00024B2014000000000E7FF110024B20140D5
:1026E00005000000C7FB110024B201400A000000F1
:1026F000AFF9150024B201400F000000CFF910001F
:1027000024B20140140000000730010024B201404F
:10271000190000007FB0070028B20140000000004F
:1027200003B1010028B201400500000007B001001C
:1027300028B201400A00000003F3010028B2014062
:102740000F00000003F3040030B20140000000005D
:102750008FA1010030B2014005000000FF210300FD
:1027600030B201400A000000FF21070030B20140F2
:102770000F000000FFA1010030B201401400000072
:10278000FFA0150030B20140190000000700010051
:1027900034B20140000000001F00030034B20140C9
:1027A000050000000300000034B201400A000000F0
:1027B00041F0000034B201400F00000041F0000081
:1027C00034B20140140000000320000034B2014084
:1027D000190000000320000038B201400000000092
:1027E0001F00010038B20140050000001F00040076
:1027F0001028000000000020340000002E1400000B
:1028000044280000340000205C2D00003C1400002F
:1028100000000000000000000000000001000200B5
:1028200004000800100020004000800000000000AC
:102830000000000001000000000000001000000087
:042840000000000094
:020000040007F3
:04DFFC005555AAAA23
:04000005000001C135
:00000001FF
